{
  "transactions": [
    {
      "hash": "0x8249d6caaf76076bea05f49a37f96658fc14e5012120d2b01e9e381ed0287e6d",
      "transactionType": "CALL",
      "contractName": null,
      "contractAddress": "0xb9966e0f95b283672313460fd0f5d3f441b97325",
      "function": "mintNft(string)",
      "arguments": [
        "ipfs://bafybeig37ioir76s7mg5oobetncojcm3c3hxasyd4rvid4jqhy4gkaheg4/?filename=0-PUG.json"
      ],
      "transaction": {
        "from": "0x9c00aa61068384174b8f6415d59e8814a4f6e98d",
        "to": "0xb9966e0f95b283672313460fd0f5d3f441b97325",
        "gas": "0x3d60d",
        "value": "0x0",
        "input": "0xda86f4a900000000000000000000000000000000000000000000000000000000000000200000000000000000000000000000000000000000000000000000000000000057697066733a2f2f62616679626569673337696f6972373673376d67356f6f6265746e636f6a636d3363336878617379643472766964346a71687934676b61686567342f3f66696c656e616d653d302d5055472e6a736f6e000000000000000000",
        "nonce": "0x21",
        "chainId": "0xaa36a7"
      },
      "additionalContracts": [],
      "isFixedGasLimit": false
    }
  ],
  "receipts": [
    {
      "status": "0x1",
      "cumulativeGasUsed": "0xece990",
      "logs": [
        {
          "address": "0xb9966e0f95b283672313460fd0f5d3f441b97325",
          "topics": [
            "0xddf252ad1be2c89b69c2b068fc378daa952ba7f163c4a11628f55a4df523b3ef",
            "0x0000000000000000000000000000000000000000000000000000000000000000",
            "0x0000000000000000000000009c00aa61068384174b8f6415d59e8814a4f6e98d",
            "0x0000000000000000000000000000000000000000000000000000000000000000"
          ],
          "data": "0x",
          "blockHash": "0xedbea4d766b4a420ebeda8ad9c36938d6012af35c740b4e7ba28ead4c7ab91d7",
          "blockNumber": "0x6702cb",
          "transactionHash": "0x8249d6caaf76076bea05f49a37f96658fc14e5012120d2b01e9e381ed0287e6d",
          "transactionIndex": "0x35",
          "logIndex": "0x6b",
          "removed": false
        }
      ],
      "logsBloom": "0x00000000000000000000000000000000000001000000000000000000000000000000000000000000000000000000000000000000000000000000000000000000008000000000000000000008100010000000000000000000000000000000000000000000020000000000000000000800000000000000000000000010000000000000000000000000000000000000000000000000000000000000000000000000000000000000000800000400000000000000000000000000000000000000000000000002000000000000000000000000000000000000000000000000000020000000000000000000000000000000000000000000000000000000000000000000",
      "type": "0x2",
      "transactionHash": "0x8249d6caaf76076bea05f49a37f96658fc14e5012120d2b01e9e381ed0287e6d",
      "transactionIndex": "0x35",
      "blockHash": "0xedbea4d766b4a420ebeda8ad9c36938d6012af35c740b4e7ba28ead4c7ab91d7",
      "blockNumber": "0x6702cb",
      "gasUsed": "0x2c6fe",
      "effectiveGasPrice": "0x903e69920",
      "from": "0x9c00aa61068384174b8f6415d59e8814a4f6e98d",
      "to": "0xb9966e0f95b283672313460fd0f5d3f441b97325",
      "contractAddress": null
    }
  ],
  "libraries": [],
  "pending": [],
  "returns": {},
  "timestamp": 1727178902,
  "chain": 11155111,
  "commit": "e250e87"
}